{
  "transactions": [
    {
      "hash": "0x4c16241f80e6bc3900275af7a12b8b02518ccc61e6001aaef1709059e5877e38",
      "transactionType": "CALL",
      "contractName": null,
      "contractAddress": "0x1606b2417d3eeba672b7628adfaf5904d34df0d9",
      "function": "setVars2(address,uint256)",
      "arguments": [
        "0x41183A60235cA1891986a8f5C6A56b79840Ebf71",
        "12"
      ],
      "transaction": {
        "from": "0x26c1497d12b50efac76946dc625937fd594b8542",
        "to": "0x1606b2417d3eeba672b7628adfaf5904d34df0d9",
        "gas": "0x19983",
        "value": "0x0",
        "input": "0x39097bc200000000000000000000000041183a60235ca1891986a8f5c6a56b79840ebf71000000000000000000000000000000000000000000000000000000000000000c",
        "nonce": "0x74",
        "chainId": "0xaa36a7"
      },
      "additionalContracts": [],
      "isFixedGasLimit": false
    }
  ],
  "receipts": [
    {
      "status": "0x1",
      "cumulativeGasUsed": "0x681930",
      "logs": [],
      "logsBloom": "0x00000000000000000000000000000000000000000000000000000000000000000000000000000000000000000000000000000000000000000000000000000000000000000000000000000000000000000000000000000000000000000000000000000000000000000000000000000000000000000000000000000000000000000000000000000000000000000000000000000000000000000000000000000000000000000000000000000000000000000000000000000000000000000000000000000000000000000000000000000000000000000000000000000000000000000000000000000000000000000000000000000000000000000000000000000000",
      "type": "0x2",
      "transactionHash": "0x4c16241f80e6bc3900275af7a12b8b02518ccc61e6001aaef1709059e5877e38",
      "transactionIndex": "0x32",
      "blockHash": "0x2f1f22e8bbbabdbf6cf3afbd658e5fdde8348893e0493246d7e2d9d150820a65",
      "blockNumber": "0x6b7d7e",
      "gasUsed": "0x11803",
      "effectiveGasPrice": "0xa654be5c",
      "from": "0x26c1497d12b50efac76946dc625937fd594b8542",
      "to": "0x1606b2417d3eeba672b7628adfaf5904d34df0d9",
      "contractAddress": null
    }
  ],
  "libraries": [],
  "pending": [],
  "returns": {},
  "timestamp": 1731180938,
  "chain": 11155111,
  "commit": "6e40b42"
}