{
  "transactions": [
    {
      "hash": "0xf90f7210795f67a7028cea48e22701e4bc31002d7aa0dc2966a21c403a386411",
      "transactionType": "CALL",
      "contractName": null,
      "contractAddress": "0x74674342bef46e43d94e8dd97b72e90857d99fb3",
      "function": "setVars2(address,uint256)",
      "arguments": [
        "0x1Da45F3CB21Eaa5Fb26EAb1e6Da09d262762C89e",
        "12"
      ],
      "transaction": {
        "from": "0x26c1497d12b50efac76946dc625937fd594b8542",
        "to": "0x74674342bef46e43d94e8dd97b72e90857d99fb3",
        "gas": "0x10d03",
        "value": "0x0",
        "input": "0x39097bc20000000000000000000000001da45f3cb21eaa5fb26eab1e6da09d262762c89e000000000000000000000000000000000000000000000000000000000000000c",
        "nonce": "0x6c",
        "chainId": "0xaa36a7"
      },
      "additionalContracts": [],
      "isFixedGasLimit": false
    }
  ],
  "receipts": [
    {
      "status": "0x1",
      "cumulativeGasUsed": "0x90ab9c",
      "logs": [],
      "logsBloom": "0x00000000000000000000000000000000000000000000000000000000000000000000000000000000000000000000000000000000000000000000000000000000000000000000000000000000000000000000000000000000000000000000000000000000000000000000000000000000000000000000000000000000000000000000000000000000000000000000000000000000000000000000000000000000000000000000000000000000000000000000000000000000000000000000000000000000000000000000000000000000000000000000000000000000000000000000000000000000000000000000000000000000000000000000000000000000",
      "type": "0x2",
      "transactionHash": "0xf90f7210795f67a7028cea48e22701e4bc31002d7aa0dc2966a21c403a386411",
      "transactionIndex": "0x26",
      "blockHash": "0x948e99ea073e7b1150f42d5b924f8f1b05b18dc135a66ba50978c63c17fa8694",
      "blockNumber": "0x6b72b3",
      "gasUsed": "0xb7f1",
      "effectiveGasPrice": "0x36c73bc6f",
      "from": "0x26c1497d12b50efac76946dc625937fd594b8542",
      "to": "0x74674342bef46e43d94e8dd97b72e90857d99fb3",
      "contractAddress": null
    }
  ],
  "libraries": [],
  "pending": [],
  "returns": {},
  "timestamp": 1731143870,
  "chain": 11155111,
  "commit": "a1af73e"
}