{
  "transactions": [
    {
      "hash": "0x3f4841c2f0aff7b9d79678f699b9064312438e824ef8213d01c072578a36cd07",
      "transactionType": "CALL",
      "contractName": null,
      "contractAddress": "0x362f065944b45f26ce819fbf96731cb44d1fa5ad",
      "function": "setVars2(address,uint256)",
      "arguments": [
        "0xbA975647ed7701e7Ad32B184bA0C780F092b24b0",
        "12"
      ],
      "transaction": {
        "from": "0x26c1497d12b50efac76946dc625937fd594b8542",
        "to": "0x362f065944b45f26ce819fbf96731cb44d1fa5ad",
        "gas": "0x181df",
        "value": "0x0",
        "input": "0x39097bc2000000000000000000000000ba975647ed7701e7ad32b184ba0c780f092b24b0000000000000000000000000000000000000000000000000000000000000000c",
        "nonce": "0x6f",
        "chainId": "0xaa36a7"
      },
      "additionalContracts": [],
      "isFixedGasLimit": false
    }
  ],
  "receipts": [
    {
      "status": "0x1",
      "cumulativeGasUsed": "0xb7842b",
      "logs": [],
      "logsBloom": "0x00000000000000000000000000000000000000000000000000000000000000000000000000000000000000000000000000000000000000000000000000000000000000000000000000000000000000000000000000000000000000000000000000000000000000000000000000000000000000000000000000000000000000000000000000000000000000000000000000000000000000000000000000000000000000000000000000000000000000000000000000000000000000000000000000000000000000000000000000000000000000000000000000000000000000000000000000000000000000000000000000000000000000000000000000000000",
      "type": "0x2",
      "transactionHash": "0x3f4841c2f0aff7b9d79678f699b9064312438e824ef8213d01c072578a36cd07",
      "transactionIndex": "0x35",
      "blockHash": "0xfff43684fea1850adb1e5e447c46a07c73b71a7b89213036baf93c14f204cf9b",
      "blockNumber": "0x6b7358",
      "gasUsed": "0x1175e",
      "effectiveGasPrice": "0x2b76539b0",
      "from": "0x26c1497d12b50efac76946dc625937fd594b8542",
      "to": "0x362f065944b45f26ce819fbf96731cb44d1fa5ad",
      "contractAddress": null
    }
  ],
  "libraries": [],
  "pending": [],
  "returns": {},
  "timestamp": 1731146139,
  "chain": 11155111,
  "commit": "a1af73e"
}