{
  "transactions": [
    {
      "hash": "0xdceb5169fc319c7b060461ab327d3519067e572cb8316c5277601b17d512afa9",
      "transactionType": "CALL",
      "contractName": null,
      "contractAddress": "0xff4a6599060d3777e02a59af9950350e5b882b4c",
      "function": "setVars1(uint256)",
      "arguments": [
        "77"
      ],
      "transaction": {
        "from": "0x26c1497d12b50efac76946dc625937fd594b8542",
        "to": "0xff4a6599060d3777e02a59af9950350e5b882b4c",
        "gas": "0x183e4",
        "value": "0x0",
        "input": "0x724d87a9000000000000000000000000000000000000000000000000000000000000004d",
        "nonce": "0x7a",
        "chainId": "0xaa36a7"
      },
      "additionalContracts": [],
      "isFixedGasLimit": false
    },
    {
      "hash": "0x6897eabc35dc05e702585cf0594aebed4354d816238a269d2a9ee60f9a0815e9",
      "transactionType": "CALL",
      "contractName": null,
      "contractAddress": "0x7faf3d564f7ced98c907a08bc939272924066b3a",
      "function": "setVars2(address,uint256)",
      "arguments": [
        "0xFF4a6599060d3777E02a59Af9950350e5B882B4C",
        "12"
      ],
      "transaction": {
        "from": "0x26c1497d12b50efac76946dc625937fd594b8542",
        "to": "0x7faf3d564f7ced98c907a08bc939272924066b3a",
        "gas": "0x19983",
        "value": "0x0",
        "input": "0x39097bc2000000000000000000000000ff4a6599060d3777e02a59af9950350e5b882b4c000000000000000000000000000000000000000000000000000000000000000c",
        "nonce": "0x7b",
        "chainId": "0xaa36a7"
      },
      "additionalContracts": [],
      "isFixedGasLimit": false
    }
  ],
  "receipts": [
    {
      "status": "0x1",
      "cumulativeGasUsed": "0x3615b4",
      "logs": [],
      "logsBloom": "0x00000000000000000000000000000000000000000000000000000000000000000000000000000000000000000000000000000000000000000000000000000000000000000000000000000000000000000000000000000000000000000000000000000000000000000000000000000000000000000000000000000000000000000000000000000000000000000000000000000000000000000000000000000000000000000000000000000000000000000000000000000000000000000000000000000000000000000000000000000000000000000000000000000000000000000000000000000000000000000000000000000000000000000000000000000000",
      "type": "0x2",
      "transactionHash": "0xdceb5169fc319c7b060461ab327d3519067e572cb8316c5277601b17d512afa9",
      "transactionIndex": "0x26",
      "blockHash": "0xb96e7b9d0621dbd32099f89635efbdfa62dd632809f74ac7cc519b4b790eb1ec",
      "blockNumber": "0x6b7e99",
      "gasUsed": "0x1093a",
      "effectiveGasPrice": "0xb49aad34",
      "from": "0x26c1497d12b50efac76946dc625937fd594b8542",
      "to": "0xff4a6599060d3777e02a59af9950350e5b882b4c",
      "contractAddress": null
    },
    {
      "status": "0x1",
      "cumulativeGasUsed": "0x372db7",
      "logs": [],
      "logsBloom": "0x00000000000000000000000000000000000000000000000000000000000000000000000000000000000000000000000000000000000000000000000000000000000000000000000000000000000000000000000000000000000000000000000000000000000000000000000000000000000000000000000000000000000000000000000000000000000000000000000000000000000000000000000000000000000000000000000000000000000000000000000000000000000000000000000000000000000000000000000000000000000000000000000000000000000000000000000000000000000000000000000000000000000000000000000000000000",
      "type": "0x2",
      "transactionHash": "0x6897eabc35dc05e702585cf0594aebed4354d816238a269d2a9ee60f9a0815e9",
      "transactionIndex": "0x27",
      "blockHash": "0xb96e7b9d0621dbd32099f89635efbdfa62dd632809f74ac7cc519b4b790eb1ec",
      "blockNumber": "0x6b7e99",
      "gasUsed": "0x11803",
      "effectiveGasPrice": "0xb49aad34",
      "from": "0x26c1497d12b50efac76946dc625937fd594b8542",
      "to": "0x7faf3d564f7ced98c907a08bc939272924066b3a",
      "contractAddress": null
    }
  ],
  "libraries": [],
  "pending": [],
  "returns": {},
  "timestamp": 1731184801,
  "chain": 11155111,
  "commit": "6e40b42"
}