{
  "transactions": [
    {
      "hash": "0xc14602d77e71b8087985d3d78cad1a59b80504400e37f303563e603b93264fd1",
      "transactionType": "CALL",
      "contractName": null,
      "contractAddress": "0xa94a34e25288380614b40d60fd0916cb92bcd97b",
      "function": "setVars2(address,uint256)",
      "arguments": [
        "0x688E7dBFdEF55d6D6e1Bef0367DaCC2D81Eef921",
        "12"
      ],
      "transaction": {
        "from": "0x26c1497d12b50efac76946dc625937fd594b8542",
        "to": "0xa94a34e25288380614b40d60fd0916cb92bcd97b",
        "gas": "0x19983",
        "value": "0x0",
        "input": "0x39097bc2000000000000000000000000688e7dbfdef55d6d6e1bef0367dacc2d81eef921000000000000000000000000000000000000000000000000000000000000000c",
        "nonce": "0x77",
        "chainId": "0xaa36a7"
      },
      "additionalContracts": [],
      "isFixedGasLimit": false
    }
  ],
  "receipts": [
    {
      "status": "0x1",
      "cumulativeGasUsed": "0x4969a8",
      "logs": [],
      "logsBloom": "0x00000000000000000000000000000000000000000000000000000000000000000000000000000000000000000000000000000000000000000000000000000000000000000000000000000000000000000000000000000000000000000000000000000000000000000000000000000000000000000000000000000000000000000000000000000000000000000000000000000000000000000000000000000000000000000000000000000000000000000000000000000000000000000000000000000000000000000000000000000000000000000000000000000000000000000000000000000000000000000000000000000000000000000000000000000000",
      "type": "0x2",
      "transactionHash": "0xc14602d77e71b8087985d3d78cad1a59b80504400e37f303563e603b93264fd1",
      "transactionIndex": "0x25",
      "blockHash": "0xb3544a80babd5556e34af9546b98f18222db745a43a0a7870a24143b07a89cbf",
      "blockNumber": "0x6b7d8e",
      "gasUsed": "0x11803",
      "effectiveGasPrice": "0xbbc11a2e",
      "from": "0x26c1497d12b50efac76946dc625937fd594b8542",
      "to": "0xa94a34e25288380614b40d60fd0916cb92bcd97b",
      "contractAddress": null
    }
  ],
  "libraries": [],
  "pending": [],
  "returns": {},
  "timestamp": 1731181153,
  "chain": 11155111,
  "commit": "6e40b42"
}